{
  "contractName": "ERC1948Mint",
  "abi": [
    {
      "constant": true,
      "inputs": [
        {
          "name": "interfaceId",
          "type": "bytes4"
        }
      ],
      "name": "supportsInterface",
      "outputs": [
        {
          "name": "",
          "type": "bool"
        }
      ],
      "payable": false,
      "stateMutability": "view",
      "type": "function"
    },
    {
      "constant": true,
      "inputs": [
        {
          "name": "tokenId",
          "type": "uint256"
        }
      ],
      "name": "getApproved",
      "outputs": [
        {
          "name": "",
          "type": "address"
        }
      ],
      "payable": false,
      "stateMutability": "view",
      "type": "function"
    },
    {
      "constant": false,
      "inputs": [
        {
          "name": "to",
          "type": "address"
        },
        {
          "name": "tokenId",
          "type": "uint256"
        }
      ],
      "name": "approve",
      "outputs": [
        {
          "name": "",
          "type": "address"
        }
      ],
      "payable": false,
      "stateMutability": "nonpayable",
      "type": "function"
    },
    {
      "constant": false,
      "inputs": [
        {
          "name": "from",
          "type": "address"
        },
        {
          "name": "to",
          "type": "address"
        },
        {
          "name": "tokenId",
          "type": "uint256"
        }
      ],
      "name": "transferFrom",
      "outputs": [],
      "payable": false,
      "stateMutability": "nonpayable",
      "type": "function"
    },
    {
      "constant": false,
      "inputs": [
        {
          "name": "from",
          "type": "address"
        },
        {
          "name": "to",
          "type": "address"
        },
        {
          "name": "tokenId",
          "type": "uint256"
        }
      ],
      "name": "safeTransferFrom",
      "outputs": [
        {
          "name": "",
          "type": "uint256"
        }
      ],
      "payable": false,
      "stateMutability": "nonpayable",
      "type": "function"
    },
    {
      "constant": true,
      "inputs": [
        {
          "name": "tokenId",
          "type": "uint256"
        },
        {
          "name": "to",
          "type": "address"
        },
        {
          "name": "tokenId",
          "type": "uint256"
        }
      ],
      "name": "ownerOf",
      "outputs": [
        {
          "name": "",
          "type": "address"
        }
      ],
      "payable": false,
      "stateMutability": "view",
      "type": "function"
    },
    {
      "constant": true,
      "inputs": [
        {
          "name": "owner",
          "type": "address"
        },
        {
          "name": "index",
          "type": "uint256"
        }
      ],
      "name": "balanceOf",
      "outputs": [
        {
          "name": "",
          "type": "uint256"
        }
      ],
      "payable": false,
      "stateMutability": "view",
      "type": "function"
    },
    {
      "constant": false,
      "inputs": [
        {
          "name": "to",
          "type": "address"
        },
        {
          "name": "approved",
          "type": "bool"
        },
        {
          "name": "tokenId",
          "type": "uint256"
        }
      ],
      "name": "setApprovalForAll",
      "outputs": [
        {
          "name": "",
          "type": "uint256"
        }
      ],
      "payable": false,
      "stateMutability": "nonpayable",
      "type": "function"
    },
    {
      "constant": false,
      "inputs": [
        {
          "name": "from",
          "type": "address"
        },
        {
          "name": "to",
          "type": "address"
        },
        {
          "name": "tokenId",
          "type": "uint256"
        },
        {
          "name": "_data",
          "type": "bytes"
        }
      ],
      "name": "safeTransferFrom",
      "outputs": [
        {
          "name": "",
          "type": "uint256"
        }
      ],
      "payable": false,
      "stateMutability": "nonpayable",
      "type": "function"
    },
    {
      "constant": true,
      "inputs": [
        {
          "name": "owner",
          "type": "address"
        },
        {
          "name": "operator",
          "type": "address"
        }
      ],
      "name": "isApprovedForAll",
      "outputs": [
        {
          "name": "",
          "type": "bool"
        }
      ],
      "payable": false,
      "stateMutability": "view",
      "type": "function"
    },
    {
      "anonymous": false,
      "inputs": [
        {
          "indexed": true,
          "name": "from",
          "type": "address"
        },
        {
          "indexed": true,
          "name": "to",
          "type": "address"
        },
        {
          "indexed": true,
          "name": "tokenId",
          "type": "uint256"
        },
        {
          "name": "_data",
          "type": "bytes"
        }
      ],
      "name": "Transfer",
      "type": "event",
      "constant": true,
      "outputs": [
        {
          "name": "",
          "type": "uint256"
        }
      ],
      "payable": false,
      "stateMutability": "view"
    },
    {
      "anonymous": false,
      "inputs": [
        {
          "indexed": true,
          "name": "owner",
          "type": "address"
        },
        {
          "indexed": true,
          "name": "approved",
          "type": "address"
        },
        {
          "indexed": true,
          "name": "tokenId",
          "type": "uint256"
        }
      ],
      "name": "Approval",
      "type": "event",
      "constant": true,
      "outputs": [
        {
          "name": "",
          "type": "string"
        }
      ],
      "payable": false,
      "stateMutability": "view"
    },
    {
      "anonymous": false,
      "inputs": [
        {
          "indexed": true,
          "name": "owner",
          "type": "address"
        },
        {
          "indexed": true,
          "name": "operator",
          "type": "address"
        },
        {
          "indexed": false,
          "name": "approved",
          "type": "bool"
        }
      ],
      "name": "ApprovalForAll",
      "type": "event",
      "constant": false,
      "outputs": [
        {
          "name": "",
          "type": "bool"
        }
      ],
      "payable": false,
      "stateMutability": "nonpayable"
    },
    {
      "anonymous": false,
      "inputs": [
        {
          "indexed": true,
          "name": "tokenId",
          "type": "uint256"
        },
        {
          "indexed": false,
          "name": "oldData",
          "type": "bytes32"
        },
        {
          "indexed": false,
          "name": "newData",
          "type": "bytes32"
        },
        {
          "name": "_data",
          "type": "bytes"
        }
      ],
      "name": "DataUpdated",
      "type": "event",
      "constant": false,
      "outputs": [],
      "payable": false,
      "stateMutability": "nonpayable"
    },
    {
      "constant": true,
      "inputs": [
        {
          "name": "tokenId",
          "type": "uint256",
          "indexed": true
        },
        {
          "name": "approved",
          "type": "address",
          "indexed": true
        },
        {
          "name": "tokenId",
          "type": "uint256",
          "indexed": true
        }
      ],
      "name": "name",
      "outputs": [
        {
          "name": "",
          "type": "string"
        }
      ],
      "payable": false,
      "stateMutability": "view",
      "type": "function",
      "anonymous": false
    },
    {
      "constant": true,
      "inputs": [
        {
          "name": "owner",
          "type": "address",
          "indexed": true
        },
        {
          "name": "operator",
          "type": "address",
          "indexed": true
        },
        {
          "indexed": false,
          "name": "approved",
          "type": "bool"
        }
      ],
      "name": "symbol",
      "outputs": [
        {
          "name": "",
          "type": "string"
        }
      ],
      "payable": false,
      "stateMutability": "view",
      "type": "function",
      "anonymous": false
    },
    {
      "constant": false,
      "inputs": [
        {
          "name": "_to",
          "type": "address",
          "indexed": true
        },
        {
          "name": "_tokenId",
          "type": "uint256",
          "indexed": false
        },
        {
          "indexed": false,
          "name": "_newData",
          "type": "bytes32"
        }
      ],
      "name": "mint",
      "outputs": [],
      "payable": false,
      "stateMutability": "nonpayable",
      "type": "function",
      "anonymous": false
    },
    {
      "anonymous": false,
      "inputs": [
        {
          "indexed": true,
          "name": "_tokenId",
          "type": "uint256"
        },
        {
          "indexed": true,
          "name": "to",
          "type": "address"
        },
        {
          "indexed": true,
          "name": "tokenId",
          "type": "uint256"
        }
      ],
      "name": "readData",
      "type": "function",
      "constant": true,
      "outputs": [
        {
          "name": "",
          "type": "bytes32"
        }
      ],
      "payable": false,
      "stateMutability": "view"
    },
    {
      "anonymous": false,
      "inputs": [
        {
          "indexed": true,
          "name": "_tokenId",
          "type": "uint256"
        },
        {
          "indexed": true,
          "name": "_newData",
          "type": "bytes32"
        },
        {
          "indexed": true,
          "name": "tokenId",
          "type": "uint256"
        }
      ],
      "name": "writeData",
      "type": "function",
      "constant": false,
      "outputs": [
        {
          "name": "",
          "type": "bytes32"
        }
      ],
      "payable": false,
      "stateMutability": "nonpayable"
    },
    {
      "anonymous": false,
      "inputs": [
        {
          "indexed": true,
          "name": "owner",
          "type": "address"
        },
        {
          "indexed": true,
          "name": "operator",
          "type": "address"
        },
        {
          "indexed": false,
          "name": "approved",
          "type": "bool"
        }
      ],
      "name": "ApprovalForAll",
      "type": "event",
      "constant": false,
      "outputs": [
        {
          "name": "",
          "type": "bytes32"
        }
      ],
      "payable": false,
      "stateMutability": "nonpayable"
    },
    {
      "constant": false,
      "inputs": [
        {
          "name": "tokenId",
          "type": "uint256",
          "indexed": true
        },
        {
          "name": "oldData",
          "type": "bytes32",
          "indexed": false
        },
        {
          "name": "newData",
          "type": "bytes32",
          "indexed": false
        }
      ],
      "name": "DataUpdated",
      "outputs": [],
      "payable": false,
      "stateMutability": "nonpayable",
      "type": "event",
      "anonymous": false
    },
    {
      "constant": false,
      "inputs": [
        {
          "name": "_to",
          "type": "address"
        },
        {
          "name": "_tokenId",
          "type": "uint256"
        },
        {
          "name": "_newData",
          "type": "bytes32"
        }
      ],
      "name": "mint",
      "outputs": [
        {
          "name": "",
          "type": "bytes32"
        }
      ],
      "payable": false,
      "stateMutability": "nonpayable",
      "type": "function"
    },
    {
      "constant": true,
      "inputs": [
        {
          "name": "_tokenId",
          "type": "uint256"
        },
        {
          "name": "_newData",
          "type": "bytes32"
        }
      ],
      "name": "readData",
      "outputs": [
        {
          "name": "",
          "type": "bytes32"
        }
      ],
      "payable": false,
      "stateMutability": "view",
      "type": "function"
    },
    {
      "constant": false,
      "inputs": [
        {
          "name": "_tokenId",
          "type": "uint256"
        },
        {
          "name": "_newData",
          "type": "bytes32"
        }
      ],
      "name": "writeData",
      "outputs": [],
      "payable": false,
      "stateMutability": "nonpayable",
      "type": "function"
    }
  ],
  "bytecode": "0x60806040526100367f01ffc9a70000000000000000000000000000000000000000000000000000000064010000000061006d810204565b6100687f80ac58cd0000000000000000000000000000000000000000000000000000000064010000000061006d810204565b6100d9565b7fffffffff00000000000000000000000000000000000000000000000000000000808216141561009c57600080fd5b7fffffffff00000000000000000000000000000000000000000000000000000000166000908152602081905260409020805460ff19166001179055565b610d34806100e86000396000f3fe608060405234801561001057600080fd5b5060043610610112576000357c01000000000000000000000000000000000000000000000000000000009004806342842e0e116100b4578063a22cb46511610083578063a22cb46514610363578063a983d43f14610391578063b88d4fde146103b4578063e985e9c51461047a57610112565b806342842e0e146102e25780636352211e1461031857806370a082311461033557806395d89b411461035b57610112565b8063095ea7b3116100f0578063095ea7b31461021d5780631e458bee1461024b57806323b872dd1461027d57806337ebbc03146102b357610112565b806301ffc9a71461011757806306fdde0314610167578063081812fc146101e4575b600080fd5b6101536004803603602081101561012d57600080fd5b50357bffffffffffffffffffffffffffffffffffffffffffffffffffffffff19166104a8565b604080519115158252519081900360200190f35b61016f6104dc565b6040805160208082528351818301528351919283929083019185019080838360005b838110156101a9578181015183820152602001610191565b50505050905090810190601f1680156101d65780820380516001836020036101000a031916815260200191505b509250505060405180910390f35b610201600480360360208110156101fa57600080fd5b5035610513565b60408051600160a060020a039092168252519081900360200190f35b6102496004803603604081101561023357600080fd5b50600160a060020a038135169060200135610545565b005b6102496004803603606081101561026157600080fd5b50600160a060020a0381351690602081013590604001356105fb565b6102496004803603606081101561029357600080fd5b50600160a060020a03813581169160208101359091169060400135610662565b6102d0600480360360208110156102c957600080fd5b5035610687565b60408051918252519081900360200190f35b610249600480360360608110156102f857600080fd5b50600160a060020a038135811691602081013590911690604001356106b0565b6102016004803603602081101561032e57600080fd5b50356106cc565b6102d06004803603602081101561034b57600080fd5b5035600160a060020a03166106f6565b61016f610729565b6102496004803603604081101561037957600080fd5b50600160a060020a0381351690602001351515610760565b610249600480360360408110156103a757600080fd5b50803590602001356107e4565b610249600480360360808110156103ca57600080fd5b600160a060020a0382358116926020810135909116916040820135919081019060808101606082013564010000000081111561040557600080fd5b82018360208201111561041757600080fd5b8035906020019184600183028401116401000000008311171561043957600080fd5b91908080601f01602080910402602001604051908101604052809392919081815260200183838082843760009201919091525092955061085d945050505050565b6101536004803603604081101561049057600080fd5b50600160a060020a0381358116916020013516610885565b7bffffffffffffffffffffffffffffffffffffffffffffffffffffffff191660009081526020819052604090205460ff1690565b60408051808201909152600381527f4e53540000000000000000000000000000000000000000000000000000000000602082015290565b600061051e826108b3565b151561052957600080fd5b50600090815260026020526040902054600160a060020a031690565b6000610550826106cc565b9050600160a060020a03838116908216141561056b57600080fd5b33600160a060020a038216148061058757506105878133610885565b151561059257600080fd5b600082815260026020526040808220805473ffffffffffffffffffffffffffffffffffffffff1916600160a060020a0387811691821790925591518593918516917f8c5be1e5ebec7d5bd14f71427d1e84f3dd0314c0f7b2291e5b200ac8c7c3b92591a4505050565b61060583836108d0565b600082815260056020908152604091829020548251908152908101839052815184927f8ec06c2117d45dcb6bcb6ecf8918414a7ff1cb1ed07da8175e2cf638d0f4777f928290030190a26000918252600560205260409091205550565b61066c3382610991565b151561067757600080fd5b6106828383836109f0565b505050565b6000610692826108b3565b151561069d57600080fd5b5060009081526005602052604090205490565b610682838383602060405190810160405280600081525061085d565b600081815260016020526040812054600160a060020a03168015156106f057600080fd5b92915050565b6000600160a060020a038216151561070d57600080fd5b50600160a060020a031660009081526003602052604090205490565b60408051808201909152600781527f4552433139343800000000000000000000000000000000000000000000000000602082015290565b600160a060020a03821633141561077657600080fd5b336000818152600460209081526040808320600160a060020a03871680855290835292819020805460ff1916861515908117909155815190815290519293927f17307eab39ab6107e8899845ad3d59bd9653f200f220920489ca2b5937696c31929181900390910190a35050565b6107ed826106cc565b600160a060020a0316331461080157600080fd5b600082815260056020908152604091829020548251908152908101839052815184927f8ec06c2117d45dcb6bcb6ecf8918414a7ff1cb1ed07da8175e2cf638d0f4777f928290030190a260009182526005602052604090912055565b610868848484610662565b61087484848484610b0c565b151561087f57600080fd5b50505050565b600160a060020a03918216600090815260046020908152604080832093909416825291909152205460ff1690565b600090815260016020526040902054600160a060020a0316151590565b600160a060020a03821615156108e557600080fd5b6108ee816108b3565b156108f857600080fd5b6000818152600160208181526040808420805473ffffffffffffffffffffffffffffffffffffffff1916600160a060020a038816908117909155845260039091529091205461094691610c88565b600160a060020a0383166000818152600360205260408082209390935591518392907fddf252ad1be2c89b69c2b068fc378daa952ba7f163c4a11628f55a4df523b3ef908290a45050565b60008061099d836106cc565b905080600160a060020a031684600160a060020a031614806109d8575083600160a060020a03166109cd84610513565b600160a060020a0316145b806109e857506109e88185610885565b949350505050565b82600160a060020a0316610a03826106cc565b600160a060020a031614610a1657600080fd5b600160a060020a0382161515610a2b57600080fd5b610a3481610ca1565b600160a060020a038316600090815260036020526040902054610a5e90600163ffffffff610ceb16565b600160a060020a038085166000908152600360205260408082209390935590841681522054610a9490600163ffffffff610c8816565b600160a060020a0380841660008181526003602090815260408083209590955585825260019052838120805473ffffffffffffffffffffffffffffffffffffffff1916831790559251849391928716917fddf252ad1be2c89b69c2b068fc378daa952ba7f163c4a11628f55a4df523b3ef91a4505050565b6000610b2084600160a060020a0316610d00565b1515610b2e575060016109e8565b6040517f150b7a020000000000000000000000000000000000000000000000000000000081523360048201818152600160a060020a03888116602485015260448401879052608060648501908152865160848601528651600095928a169463150b7a029490938c938b938b939260a4019060208501908083838e5b83811015610bc1578181015183820152602001610ba9565b50505050905090810190601f168015610bee5780820380516001836020036101000a031916815260200191505b5095505050505050602060405180830381600087803b158015610c1057600080fd5b505af1158015610c24573d6000803e3d6000fd5b505050506040513d6020811015610c3a57600080fd5b50517bffffffffffffffffffffffffffffffffffffffffffffffffffffffff19167f150b7a020000000000000000000000000000000000000000000000000000000014915050949350505050565b600082820183811015610c9a57600080fd5b9392505050565b600081815260026020526040902054600160a060020a031615610ce8576000818152600260205260409020805473ffffffffffffffffffffffffffffffffffffffff191690555b50565b600082821115610cfa57600080fd5b50900390565b6000903b119056fea165627a7a7230582044c6f16b8dfaeed89b420345ddee352b553acdbbfa32a6afb457c14c4f4d8ea00029",
  "source": "pragma solidity 0.5.2;\n\nimport \"openzeppelin-solidity/contracts/token/ERC721/ERC721.sol\";\nimport \"./IERC1948.sol\";\n\n\ncontract ERC1948Mint is IERC1948, ERC721 {\n  mapping(uint256 => bytes32) data;\n\n  function name() external view returns (string memory) {\n    return \"NST\";\n  }\n\n  function symbol() external view returns (string memory) {\n    return \"ERC1948\";\n  }\n\n  function mint(address _to, uint256 _tokenId, bytes32 _newData) public {\n    super._mint(_to, _tokenId);\n\n    emit DataUpdated(_tokenId, data[_tokenId], _newData);\n    data[_tokenId] = _newData;\n  }\n\n  function readData(uint256 _tokenId) public view returns (bytes32) {\n    require(_exists(_tokenId));\n    return data[_tokenId];\n  }\n\n  function writeData(uint256 _tokenId, bytes32 _newData) public {\n    require(msg.sender == ownerOf(_tokenId));\n    emit DataUpdated(_tokenId, data[_tokenId], _newData);\n    data[_tokenId] = _newData;\n  }\n}\n",
  "sourcePath": "/code/leap/leap-contracts/contracts/ERC1948Mint.sol",
  "compiler": {
    "name": "solc",
    "version": "0.5.2+commit.1df8f40c.Emscripten.clang"
  },
  "schemaVersion": "3.0.6",
  "updatedAt": "2019-04-24T11:26:10.114Z",
  "devdoc": {
    "methods": {
      "approve(address,uint256)": {
        "details": "Approves another address to transfer the given token ID The zero address indicates there is no approved address. There can only be one approved address per token at a given time. Can only be called by the token owner or an approved operator.",
        "params": {
          "to": "address to be approved for the given token ID",
          "tokenId": "uint256 ID of the token to be approved"
        }
      },
      "balanceOf(address)": {
        "details": "Gets the balance of the specified address",
        "params": {
          "owner": "address to query the balance of"
        },
        "return": "uint256 representing the amount owned by the passed address"
      },
      "getApproved(uint256)": {
        "details": "Gets the approved address for a token ID, or zero if no address set Reverts if the token ID does not exist.",
        "params": {
          "tokenId": "uint256 ID of the token to query the approval of"
        },
        "return": "address currently approved for the given token ID"
      },
      "isApprovedForAll(address,address)": {
        "details": "Tells whether an operator is approved by a given owner",
        "params": {
          "operator": "operator address which you want to query the approval of",
          "owner": "owner address which you want to query the approval of"
        },
        "return": "bool whether the given operator is approved by the given owner"
      },
      "ownerOf(uint256)": {
        "details": "Gets the owner of the specified token ID",
        "params": {
          "tokenId": "uint256 ID of the token to query the owner of"
        },
        "return": "owner address currently marked as the owner of the given token ID"
      },
      "safeTransferFrom(address,address,uint256)": {
        "details": "Safely transfers the ownership of a given token ID to another address If the target address is a contract, it must implement `onERC721Received`, which is called upon a safe transfer, and return the magic value `bytes4(keccak256(\"onERC721Received(address,address,uint256,bytes)\"))`; otherwise, the transfer is reverted.     * Requires the msg sender to be the owner, approved, or operator",
        "params": {
          "from": "current owner of the token",
          "to": "address to receive the ownership of the given token ID",
          "tokenId": "uint256 ID of the token to be transferred"
        }
      },
      "safeTransferFrom(address,address,uint256,bytes)": {
        "details": "Safely transfers the ownership of a given token ID to another address If the target address is a contract, it must implement `onERC721Received`, which is called upon a safe transfer, and return the magic value `bytes4(keccak256(\"onERC721Received(address,address,uint256,bytes)\"))`; otherwise, the transfer is reverted. Requires the msg sender to be the owner, approved, or operator",
        "params": {
          "_data": "bytes data to send along with a safe transfer check",
          "from": "current owner of the token",
          "to": "address to receive the ownership of the given token ID",
          "tokenId": "uint256 ID of the token to be transferred"
        }
      },
      "setApprovalForAll(address,bool)": {
        "details": "Sets or unsets the approval of a given operator An operator is allowed to transfer all tokens of the sender on their behalf",
        "params": {
          "approved": "representing the status of the approval to be set",
          "to": "operator address to set the approval"
        }
      },
      "supportsInterface(bytes4)": {
        "details": "implement supportsInterface(bytes4) using a lookup table"
      },
      "transferFrom(address,address,uint256)": {
        "details": "Transfers the ownership of a given token ID to another address Usage of this method is discouraged, use `safeTransferFrom` whenever possible Requires the msg sender to be the owner, approved, or operator",
        "params": {
          "from": "current owner of the token",
          "to": "address to receive the ownership of the given token ID",
          "tokenId": "uint256 ID of the token to be transferred"
        }
      },
      "name()": {
        "details": "Gets the token name",
        "return": "string representing the token name"
      },
      "symbol()": {
        "details": "Gets the token symbol",
        "return": "string representing the token symbol"
      },
      "tokenByIndex(uint256)": {
        "details": "Gets the token ID at a given index of all the tokens in this contract Reverts if the index is greater or equal to the total number of tokens",
        "params": {
          "index": "uint256 representing the index to be accessed of the tokens list"
        },
        "return": "uint256 token ID at the given index of the tokens list"
      },
      "tokenOfOwnerByIndex(address,uint256)": {
        "details": "Gets the token ID at a given index of the tokens list of the requested owner",
        "params": {
          "index": "uint256 representing the index to be accessed of the requested tokens list",
          "owner": "address owning the tokens list to be accessed"
        },
        "return": "uint256 token ID at the given index of the tokens list owned by the requested address"
      },
      "tokenURI(uint256)": {
        "details": "Returns an URI for a given token ID Throws if the token ID does not exist. May return an empty string.",
        "params": {
          "tokenId": "uint256 ID of the token to query"
        }
      },
      "totalSupply()": {
        "details": "Gets the total amount of tokens stored by the contract",
        "return": "uint256 representing the total amount of tokens"
      }
    }
  },
  "userdoc": {
    "methods": {}
  }
}