{
  "contractName": "ERC1948Mint",
  "abi": [
    {
      "constant": true,
      "inputs": [
        {
          "name": "interfaceId",
          "type": "bytes4"
        }
      ],
      "name": "supportsInterface",
      "outputs": [
        {
          "name": "",
          "type": "bool"
        }
      ],
      "payable": false,
      "stateMutability": "view",
      "type": "function"
    },
    {
      "constant": true,
      "inputs": [
        {
          "name": "tokenId",
          "type": "uint256"
        }
      ],
      "name": "getApproved",
      "outputs": [
        {
          "name": "",
          "type": "address"
        }
      ],
      "payable": false,
      "stateMutability": "view",
      "type": "function"
    },
    {
      "constant": false,
      "inputs": [
        {
          "name": "to",
          "type": "address"
        },
        {
          "name": "tokenId",
          "type": "uint256"
        }
      ],
      "name": "approve",
      "outputs": [],
      "payable": false,
      "stateMutability": "nonpayable",
      "type": "function"
    },
    {
      "constant": false,
      "inputs": [
        {
          "name": "from",
          "type": "address"
        },
        {
          "name": "to",
          "type": "address"
        },
        {
          "name": "tokenId",
          "type": "uint256"
        }
      ],
      "name": "transferFrom",
      "outputs": [],
      "payable": false,
      "stateMutability": "nonpayable",
      "type": "function"
    },
    {
      "constant": false,
      "inputs": [
        {
          "name": "from",
          "type": "address"
        },
        {
          "name": "to",
          "type": "address"
        },
        {
          "name": "tokenId",
          "type": "uint256"
        }
      ],
      "name": "safeTransferFrom",
      "outputs": [],
      "payable": false,
      "stateMutability": "nonpayable",
      "type": "function"
    },
    {
      "constant": true,
      "inputs": [
        {
          "name": "tokenId",
          "type": "uint256"
        }
      ],
      "name": "ownerOf",
      "outputs": [
        {
          "name": "",
          "type": "address"
        }
      ],
      "payable": false,
      "stateMutability": "view",
      "type": "function"
    },
    {
      "constant": true,
      "inputs": [
        {
          "name": "owner",
          "type": "address"
        }
      ],
      "name": "balanceOf",
      "outputs": [
        {
          "name": "",
          "type": "uint256"
        }
      ],
      "payable": false,
      "stateMutability": "view",
      "type": "function"
    },
    {
      "constant": false,
      "inputs": [
        {
          "name": "to",
          "type": "address"
        },
        {
          "name": "approved",
          "type": "bool"
        }
      ],
      "name": "setApprovalForAll",
      "outputs": [],
      "payable": false,
      "stateMutability": "nonpayable",
      "type": "function"
    },
    {
      "constant": false,
      "inputs": [
        {
          "name": "from",
          "type": "address"
        },
        {
          "name": "to",
          "type": "address"
        },
        {
          "name": "tokenId",
          "type": "uint256"
        },
        {
          "name": "_data",
          "type": "bytes"
        }
      ],
      "name": "safeTransferFrom",
      "outputs": [],
      "payable": false,
      "stateMutability": "nonpayable",
      "type": "function"
    },
    {
      "constant": true,
      "inputs": [
        {
          "name": "owner",
          "type": "address"
        },
        {
          "name": "operator",
          "type": "address"
        }
      ],
      "name": "isApprovedForAll",
      "outputs": [
        {
          "name": "",
          "type": "bool"
        }
      ],
      "payable": false,
      "stateMutability": "view",
      "type": "function"
    },
    {
      "anonymous": false,
      "inputs": [
        {
          "indexed": true,
          "name": "from",
          "type": "address"
        },
        {
          "indexed": true,
          "name": "to",
          "type": "address"
        },
        {
          "indexed": true,
          "name": "tokenId",
          "type": "uint256"
        }
      ],
      "name": "Transfer",
      "type": "event"
    },
    {
      "anonymous": false,
      "inputs": [
        {
          "indexed": true,
          "name": "owner",
          "type": "address"
        },
        {
          "indexed": true,
          "name": "approved",
          "type": "address"
        },
        {
          "indexed": true,
          "name": "tokenId",
          "type": "uint256"
        }
      ],
      "name": "Approval",
      "type": "event"
    },
    {
      "anonymous": false,
      "inputs": [
        {
          "indexed": true,
          "name": "owner",
          "type": "address"
        },
        {
          "indexed": true,
          "name": "operator",
          "type": "address"
        },
        {
          "indexed": false,
          "name": "approved",
          "type": "bool"
        }
      ],
      "name": "ApprovalForAll",
      "type": "event"
    },
    {
      "anonymous": false,
      "inputs": [
        {
          "indexed": true,
          "name": "tokenId",
          "type": "uint256"
        },
        {
          "indexed": false,
          "name": "oldData",
          "type": "bytes32"
        },
        {
          "indexed": false,
          "name": "newData",
          "type": "bytes32"
        }
      ],
      "name": "DataUpdated",
      "type": "event"
    },
    {
      "constant": false,
      "inputs": [
        {
          "name": "_to",
          "type": "address"
        },
        {
          "name": "_tokenId",
          "type": "uint256"
        },
        {
          "name": "_newData",
          "type": "bytes32"
        }
      ],
      "name": "mint",
      "outputs": [],
      "payable": false,
      "stateMutability": "nonpayable",
      "type": "function"
    },
    {
      "constant": true,
      "inputs": [
        {
          "name": "_tokenId",
          "type": "uint256"
        }
      ],
      "name": "readData",
      "outputs": [
        {
          "name": "",
          "type": "bytes32"
        }
      ],
      "payable": false,
      "stateMutability": "view",
      "type": "function"
    },
    {
      "constant": false,
      "inputs": [
        {
          "name": "_tokenId",
          "type": "uint256"
        },
        {
          "name": "_newData",
          "type": "bytes32"
        }
      ],
      "name": "writeData",
      "outputs": [],
      "payable": false,
      "stateMutability": "nonpayable",
      "type": "function"
    }
  ],
  "bytecode": "0x60806040526100367f01ffc9a70000000000000000000000000000000000000000000000000000000064010000000061006d810204565b6100687f80ac58cd0000000000000000000000000000000000000000000000000000000064010000000061006d810204565b6100d9565b7fffffffff00000000000000000000000000000000000000000000000000000000808216141561009c57600080fd5b7fffffffff00000000000000000000000000000000000000000000000000000000166000908152602081905260409020805460ff19166001179055565b610c1b806100e86000396000f3fe608060405234801561001057600080fd5b50600436106100ec576000357c01000000000000000000000000000000000000000000000000000000009004806342842e0e116100a9578063a22cb46511610083578063a22cb465146102b8578063a983d43f146102e6578063b88d4fde14610309578063e985e9c5146103cf576100ec565b806342842e0e1461023f5780636352211e1461027557806370a0823114610292576100ec565b806301ffc9a7146100f1578063081812fc14610141578063095ea7b31461017a5780631e458bee146101a857806323b872dd146101da57806337ebbc0314610210575b600080fd5b61012d6004803603602081101561010757600080fd5b50357bffffffffffffffffffffffffffffffffffffffffffffffffffffffff19166103fd565b604080519115158252519081900360200190f35b61015e6004803603602081101561015757600080fd5b5035610431565b60408051600160a060020a039092168252519081900360200190f35b6101a66004803603604081101561019057600080fd5b50600160a060020a038135169060200135610463565b005b6101a6600480360360608110156101be57600080fd5b50600160a060020a038135169060208101359060400135610519565b6101a6600480360360608110156101f057600080fd5b50600160a060020a03813581169160208101359091169060400135610580565b61022d6004803603602081101561022657600080fd5b50356105a5565b60408051918252519081900360200190f35b6101a66004803603606081101561025557600080fd5b50600160a060020a038135811691602081013590911690604001356105ce565b61015e6004803603602081101561028b57600080fd5b50356105ea565b61022d600480360360208110156102a857600080fd5b5035600160a060020a0316610614565b6101a6600480360360408110156102ce57600080fd5b50600160a060020a0381351690602001351515610647565b6101a6600480360360408110156102fc57600080fd5b50803590602001356106cb565b6101a66004803603608081101561031f57600080fd5b600160a060020a0382358116926020810135909116916040820135919081019060808101606082013564010000000081111561035a57600080fd5b82018360208201111561036c57600080fd5b8035906020019184600183028401116401000000008311171561038e57600080fd5b91908080601f016020809104026020016040519081016040528093929190818152602001838380828437600092019190915250929550610744945050505050565b61012d600480360360408110156103e557600080fd5b50600160a060020a038135811691602001351661076c565b7bffffffffffffffffffffffffffffffffffffffffffffffffffffffff191660009081526020819052604090205460ff1690565b600061043c8261079a565b151561044757600080fd5b50600090815260026020526040902054600160a060020a031690565b600061046e826105ea565b9050600160a060020a03838116908216141561048957600080fd5b33600160a060020a03821614806104a557506104a5813361076c565b15156104b057600080fd5b600082815260026020526040808220805473ffffffffffffffffffffffffffffffffffffffff1916600160a060020a0387811691821790925591518593918516917f8c5be1e5ebec7d5bd14f71427d1e84f3dd0314c0f7b2291e5b200ac8c7c3b92591a4505050565b61052383836107b7565b600082815260056020908152604091829020548251908152908101839052815184927f8ec06c2117d45dcb6bcb6ecf8918414a7ff1cb1ed07da8175e2cf638d0f4777f928290030190a26000918252600560205260409091205550565b61058a3382610878565b151561059557600080fd5b6105a08383836108d7565b505050565b60006105b08261079a565b15156105bb57600080fd5b5060009081526005602052604090205490565b6105a08383836020604051908101604052806000815250610744565b600081815260016020526040812054600160a060020a031680151561060e57600080fd5b92915050565b6000600160a060020a038216151561062b57600080fd5b50600160a060020a031660009081526003602052604090205490565b600160a060020a03821633141561065d57600080fd5b336000818152600460209081526040808320600160a060020a03871680855290835292819020805460ff1916861515908117909155815190815290519293927f17307eab39ab6107e8899845ad3d59bd9653f200f220920489ca2b5937696c31929181900390910190a35050565b6106d4826105ea565b600160a060020a031633146106e857600080fd5b600082815260056020908152604091829020548251908152908101839052815184927f8ec06c2117d45dcb6bcb6ecf8918414a7ff1cb1ed07da8175e2cf638d0f4777f928290030190a260009182526005602052604090912055565b61074f848484610580565b61075b848484846109f3565b151561076657600080fd5b50505050565b600160a060020a03918216600090815260046020908152604080832093909416825291909152205460ff1690565b600090815260016020526040902054600160a060020a0316151590565b600160a060020a03821615156107cc57600080fd5b6107d58161079a565b156107df57600080fd5b6000818152600160208181526040808420805473ffffffffffffffffffffffffffffffffffffffff1916600160a060020a038816908117909155845260039091529091205461082d91610b6f565b600160a060020a0383166000818152600360205260408082209390935591518392907fddf252ad1be2c89b69c2b068fc378daa952ba7f163c4a11628f55a4df523b3ef908290a45050565b600080610884836105ea565b905080600160a060020a031684600160a060020a031614806108bf575083600160a060020a03166108b484610431565b600160a060020a0316145b806108cf57506108cf818561076c565b949350505050565b82600160a060020a03166108ea826105ea565b600160a060020a0316146108fd57600080fd5b600160a060020a038216151561091257600080fd5b61091b81610b88565b600160a060020a03831660009081526003602052604090205461094590600163ffffffff610bd216565b600160a060020a03808516600090815260036020526040808220939093559084168152205461097b90600163ffffffff610b6f16565b600160a060020a0380841660008181526003602090815260408083209590955585825260019052838120805473ffffffffffffffffffffffffffffffffffffffff1916831790559251849391928716917fddf252ad1be2c89b69c2b068fc378daa952ba7f163c4a11628f55a4df523b3ef91a4505050565b6000610a0784600160a060020a0316610be7565b1515610a15575060016108cf565b6040517f150b7a020000000000000000000000000000000000000000000000000000000081523360048201818152600160a060020a03888116602485015260448401879052608060648501908152865160848601528651600095928a169463150b7a029490938c938b938b939260a4019060208501908083838e5b83811015610aa8578181015183820152602001610a90565b50505050905090810190601f168015610ad55780820380516001836020036101000a031916815260200191505b5095505050505050602060405180830381600087803b158015610af757600080fd5b505af1158015610b0b573d6000803e3d6000fd5b505050506040513d6020811015610b2157600080fd5b50517bffffffffffffffffffffffffffffffffffffffffffffffffffffffff19167f150b7a020000000000000000000000000000000000000000000000000000000014915050949350505050565b600082820183811015610b8157600080fd5b9392505050565b600081815260026020526040902054600160a060020a031615610bcf576000818152600260205260409020805473ffffffffffffffffffffffffffffffffffffffff191690555b50565b600082821115610be157600080fd5b50900390565b6000903b119056fea165627a7a723058204e101b1c47aecf67101f790b52dab4bedc9e9c7e3004629cefaa51b0589566a90029",
  "source": "pragma solidity 0.5.2;\n\nimport \"openzeppelin-solidity/contracts/token/ERC721/ERC721.sol\";\nimport \"./IERC1948.sol\";\n\n\ncontract ERC1948Mint is IERC1948, ERC721 {\n  mapping(uint256 => bytes32) data;\n\n  function mint(address _to, uint256 _tokenId, bytes32 _newData) public {\n    super._mint(_to, _tokenId);\n\n    emit DataUpdated(_tokenId, data[_tokenId], _newData);\n    data[_tokenId] = _newData;\n  }\n\n  function readData(uint256 _tokenId) public view returns (bytes32) {\n    require(_exists(_tokenId));\n    return data[_tokenId];\n  }\n\n  function writeData(uint256 _tokenId, bytes32 _newData) public {\n    require(msg.sender == ownerOf(_tokenId));\n    emit DataUpdated(_tokenId, data[_tokenId], _newData);\n    data[_tokenId] = _newData;\n  }\n}\n",
  "sourcePath": "/code/leap/leap-contracts/contracts/ERC1948Mint.sol",
  "compiler": {
    "name": "solc",
    "version": "0.5.2+commit.1df8f40c.Emscripten.clang"
  },
  "schemaVersion": "3.0.6",
  "updatedAt": "2019-04-23T10:14:32.207Z",
  "devdoc": {
    "methods": {
      "approve(address,uint256)": {
        "details": "Approves another address to transfer the given token ID The zero address indicates there is no approved address. There can only be one approved address per token at a given time. Can only be called by the token owner or an approved operator.",
        "params": {
          "to": "address to be approved for the given token ID",
          "tokenId": "uint256 ID of the token to be approved"
        }
      },
      "balanceOf(address)": {
        "details": "Gets the balance of the specified address",
        "params": {
          "owner": "address to query the balance of"
        },
        "return": "uint256 representing the amount owned by the passed address"
      },
      "getApproved(uint256)": {
        "details": "Gets the approved address for a token ID, or zero if no address set Reverts if the token ID does not exist.",
        "params": {
          "tokenId": "uint256 ID of the token to query the approval of"
        },
        "return": "address currently approved for the given token ID"
      },
      "isApprovedForAll(address,address)": {
        "details": "Tells whether an operator is approved by a given owner",
        "params": {
          "operator": "operator address which you want to query the approval of",
          "owner": "owner address which you want to query the approval of"
        },
        "return": "bool whether the given operator is approved by the given owner"
      },
      "ownerOf(uint256)": {
        "details": "Gets the owner of the specified token ID",
        "params": {
          "tokenId": "uint256 ID of the token to query the owner of"
        },
        "return": "owner address currently marked as the owner of the given token ID"
      },
      "safeTransferFrom(address,address,uint256)": {
        "details": "Safely transfers the ownership of a given token ID to another address If the target address is a contract, it must implement `onERC721Received`, which is called upon a safe transfer, and return the magic value `bytes4(keccak256(\"onERC721Received(address,address,uint256,bytes)\"))`; otherwise, the transfer is reverted.     * Requires the msg sender to be the owner, approved, or operator",
        "params": {
          "from": "current owner of the token",
          "to": "address to receive the ownership of the given token ID",
          "tokenId": "uint256 ID of the token to be transferred"
        }
      },
      "safeTransferFrom(address,address,uint256,bytes)": {
        "details": "Safely transfers the ownership of a given token ID to another address If the target address is a contract, it must implement `onERC721Received`, which is called upon a safe transfer, and return the magic value `bytes4(keccak256(\"onERC721Received(address,address,uint256,bytes)\"))`; otherwise, the transfer is reverted. Requires the msg sender to be the owner, approved, or operator",
        "params": {
          "_data": "bytes data to send along with a safe transfer check",
          "from": "current owner of the token",
          "to": "address to receive the ownership of the given token ID",
          "tokenId": "uint256 ID of the token to be transferred"
        }
      },
      "setApprovalForAll(address,bool)": {
        "details": "Sets or unsets the approval of a given operator An operator is allowed to transfer all tokens of the sender on their behalf",
        "params": {
          "approved": "representing the status of the approval to be set",
          "to": "operator address to set the approval"
        }
      },
      "supportsInterface(bytes4)": {
        "details": "implement supportsInterface(bytes4) using a lookup table"
      },
      "transferFrom(address,address,uint256)": {
        "details": "Transfers the ownership of a given token ID to another address Usage of this method is discouraged, use `safeTransferFrom` whenever possible Requires the msg sender to be the owner, approved, or operator",
        "params": {
          "from": "current owner of the token",
          "to": "address to receive the ownership of the given token ID",
          "tokenId": "uint256 ID of the token to be transferred"
        }
      }
    }
  },
  "userdoc": {
    "methods": {}
  }
}